:020000040800F2
:1000000078290020192F00087D0500087F050008C9
:1000100083050008870500088B0500080000000024
:100020000000000000000000000000008F05000834
:10003000910500080000000039740008BD2C00087C
:10004000332F0008332F0008332F0008332F000808
:10005000332F0008332F0008332F0008332F0008F8
:10006000332F0008332F0008332F0008332F0008E8
:10007000332F0008332F0008332F0008332F0008D8
:10008000332F0008332F0008332F0008332F0008C8
:10009000332F0008332F0008332F0008332F0008B8
:1000A000332F0008332F0008332F0008332F0008A8
:1000B000EB0E0008FD150008332F0008332F000851
:1000C000332F0008332F0008332F0008332F000888
:1000D000332F0008872E00085D2B00082F2B000807
:1000E000332F0008332F0008332F0008332F000868
:1000F000332F0008A90F0008332F0008332F000802
:10010000332F0008332F0008030F0008332F000897
:10011000332F0008332F000811160008332F000872
:10012000332F0008332F0008332F0008332F000827
:10013000332F0008332F0008332F0008332F000817
:10014000332F0008332F0008332F0008332F000807
:10015000332F0008332F0008332F0008332F0008F7
:10016000332F0008332F0008332F0008332F0008E7
:10017000332F0008332F0008332F0008332F0008D7
:10018000332F0008332F000800F002F800F04CF87D
:100190000AA090E8000C82448344AAF10107DA45E2
:1001A00001D100F041F8AFF2090EBAE80F0013F0E8
:1001B000010F18BFFB1A43F001031847FCA400000D
:1001C0001CA500000A4410F8014B14F00F0508BFED
:1001D00010F8015B240908BF10F8014B6D1E05D013
:1001E00010F8013B6D1E01F8013BF9D1641E03D0EC
:1001F000641E01F8015BFBD19142E4D3704700001B
:100200000023002400250026103A28BF78C1FBD81F
:10021000520728BF30C148BF0B6070471FB509F0B7
:10022000FAFF1FBD10B510BD07F05AF91146FFF7D0
:10023000F5FF00F03DF907F078F903B4FFF7F2FF9E
:1002400003BC02F0C1FD000031E0B2480078C01EDE
:10025000062828D2DFE800F00307271E240D05201A
:1002600006F0B1FD1FE0052006F03CFE02F09CFA0E
:1002700019E0052006F036FE9FEDA70AA74880ED9D
:10028000000A9FEDA50AA64880ED000A072006F0A7
:100290009AFD08E0052006F025FE00F098FC02E03B
:1002A00002F082FA00BF00BF642002F063FDCCE7D9
:1002B00016E001F0ACFF0A2002F05CFD99480068EE
:1002C00028B90020984908609849087005E0552031
:1002D00096490870002093490860072006F002FE46
:1002E000E7E72CE09248C089642190FBF1F0914946
:1002F00008808F48008A642190FBF1F08E490880C5
:100300008B48C088642190FBF1F08C4908808848B4
:100310008089642190FBF1F0894908804FF4805175
:10032000884802F071FF884908704FF4804187487F
:1003300002F06AFF86490870642002F01BFDD1E7D5
:1003400061E07A48007836282DD008DCA0F1310031
:10035000052854D2DFE800F010151A221F003928B2
:100360003AD004DC372822D0382848D123E0552859
:100370003ED0722843D135E07649087802F03CF946
:100380003DE07449087802F0A6F938E07149087830
:1003900002F0C4F933E002F007FA30E06D49087862
:1003A00002F0DFF92BE0052006F00DFD27E0052027
:1003B00006F098FD23E0052006F094FD9FED560A17
:1003C000564880ED000A9FED540A554880ED000A1A
:1003D000072006F0F8FC12E0052006F083FD00F08F
:1003E00006FB0CE0052006F07DFD00F0F0FB06E0CA
:1003F000052006F077FD072006F0E5FC00BF00BFF2
:10040000642002F0B7FC9CE704E000F025FB6420C8
:1004100002F0B0FCF9E70AE04F49087802F030FC3E
:100420004E49087802F02CFC642002F0A3FCF3E7AC
:1004300070B50446002500BF05F05EF906F0D4FF54
:1004400005460623464A0021AFF2350006F0CAFAF7
:100450000523444A0021AFF24F0006F0C3FA0323FC
:10046000414A0021AFF2271006F0BCFA04233F4AAC
:100470000021AFF2911006F0B5FA07233C4A0021A3
:10048000AFF2D31006F0AEFA08233A4A0021AFF2D9
:10049000472006F0A7FA0A2006F024FD052006F002
:1004A00021FD072006F01EFD284606F0A1FF70BDC5
:1004B00010B5A82002F00EFC4FF4E13002F091FCE0
:1004C00002F04EF84FF4E13002F092F94FF416507A
:1004D00002F056FB7721632000F0D5FF00F062F9AF
:1004E00000F0E5F900F084F900F01AFC00F088FC57
:1004F000292142F20F7000F02BFD04F0C0FF0A2307
:100500001D4A0021AFF2D70006F06CFA05F0DCF8C6
:10051000002010BD2501002000000000C4000020C4
:10052000C8000020BC0000204C0100203801002041
:10053000BC17002016000020180000201A00002020
:100540001C000020000C02401400002000080240A3
:10055000150000202C0000206C00002070000020FE
:10056000B8030020B8070020B80F0020B80B002007
:10057000B8130020B8170020B8020020704700BF51
:10058000FEE700BFFEE700BFFEE700BFFEE77047E3
:10059000704700000CB5002001900090764800687C
:1005A00040F480307449086000BF7348006800F46C
:1005B000003000900198401C0190009818B90198F3
:1005C000B0F5A04FF1D16C48006800F4003010B1D4
:1005D0000120009001E0002000900098012846D101
:1005E00065484030006840F0805063494031086001
:1005F0006248006840F44040604908605E48083046
:1006000000685D49083108600846006840F4004011
:1006100008600846006840F4A05008605848091F68
:100620000860081F006840F08070091F086000BF64
:100630005148006800F000700028F9D040F20570C1
:10064000504908604C480830006820F003004A49CF
:10065000083108600846006840F00200086000BFEA
:1006600045480830006800F00C000828F8D10CBD9F
:1006700010B54548006840F47000434908603E48A2
:10068000006840F001003C49086000203A49083108
:100690000860394800683D490840374908603C48CF
:1006A000091D0860081F006820F48020091F0860E9
:1006B000002031490C310860FFF76CFF4FF00060FB
:1006C00031498039086010BD70B500200022022336
:1006D00000240221284D08352D6805F00C0020B1BA
:1006E000042806D0082834D107E02A4D2A4E356068
:1006F00033E02A4D284E35602FE01F4D2D1D2D680B
:10070000C5F380541C4D2D1D2D6805F03F0154B1DB
:10071000224DB5FBF1F5184E361D3668C6F3881626
:1007200005FB06F209E01B4DB5FBF1F5124E361D37
:100730003668C6F3881605FB06F20F4D2D1D2D6891
:10074000C5F301456D1C6B00B2FBF3F5124E35602D
:1007500003E0104D104E356000BF00BF064D083558
:100760002D68C5F303150E4E705D0B4D2D68C54009
:10077000094E356070BD0000003802400070004036
:1007800008544007003C024088ED00E0FFFFF6FE01
:10079000103000240024F4000000002000127A0031
:1007A000040000201CB50121072002F069FF01218F
:1007B000080202F0BFFF0121880502F061FF3E2020
:1007C000009003208DF8040000208DF80700694692
:1007D000494802F0B7FC032000906946474802F000
:1007E000B1FCC42000906946454802F0ABFC1CBD3A
:1007F00000B587B00020019001208DF808008DF829
:100800000900002005900A208DF8180001A93D4834
:1008100003F0BFFA01213B4803F0ECFB012139480A
:1008200003F0DDFB072301220221364803F037FBEA
:10083000072302220621334803F031FB072303225A
:100840001946304803F02BFB0723042208212D48CA
:1008500003F025FB0723052209212A4803F01FFB8B
:10086000072306220B21274803F019FB07231A460A
:100870000C21244803F013FB072308220D212148F3
:1008800003F00DFB072309220E211E4803F007FB8E
:1008900007230A220F211B4803F001FB01211948FD
:1008A00003F0BDFA174803F056FB07B000BD00B5D2
:1008B0008FB015480290002003900A2004904FF456
:1008C00080600690C00008904011099000200D90B3
:1008D00005904FF4006007900A484C3001904FF4A7
:1008E00000300A906946094803F01CFD01210748C1
:1008F00003F052FD0FB000BD0008024000040240AA
:100900000000024000200140BC170020106402409B
:1009100010B5EE480088062803DBED48008814284F
:1009200010DA0020EB49086001F03EFF4FF4FA7046
:1009300002F020FA0A2001F014FF4FF47A7002F05E
:1009400019FA53E0E4480088142803DBE3480088E0
:10095000062810DA0120DF49086001F025FF4FF476
:10096000FA7002F007FA0A2001F0D8FE4FF47A700C
:1009700002F000FA3AE0D5480088042803DBD748A3
:10098000008804280DDA01F00FFF4FF4FA7002F02E
:10099000F1F90F2001F09FFE4FF47A7002F0EAF9AE
:1009A00024E0CF48007850B9CE480078012806D11D
:1009B0000A2001F0B3FE0320C649086016E0C848CB
:1009C0000078012809D1C748007830B90A2001F021
:1009D000C8FE0420BF49086008E00520BD49086042
:1009E000142001F009FEC82002F0C4F910BD10B5B2
:1009F000BB48007858B9BB480078012807D1BA49EC
:100A0000087801F08BFE0320B249086023E0B44867
:100A1000007801280AD1B348007838B9B24908787B
:100A200001F09FFE0420AB49086014E0AC48007858
:100A300038B9AC48007820B9AB49087801F04BFED2
:100A400009E00520A3490860A749087801F0D4FD12
:100A5000C82002F08FF910BD10B52DED0A8BA0480B
:100A60000078012807D19F480078012803D11E2073
:100A700001F0C2FDA8E00A2001F02DFE4FF47A70CB
:100A800002F078F99948006808F04FFF41EC1C0B20
:100A9000B0EE4C1AF0EE6C1A9FED950B07F070F962
:100AA000B0EE40BAF0EE60BA9FED930B53EC102B12
:100AB00051EC1B0B08F0A0FF41EC190B90480068AB
:100AC00009F038FB41EC1A0B53EC192B08F0EAFC47
:100AD00041EC180B08F0B4FC8A49086001F0F4F905
:100AE0008948046802E01E2001F086FD86480068FF
:100AF000001B1428F7DB7D49086800EBD071491012
:100B0000A0EB410161BB7948006808F00EFF41ECA1
:100B10001C0BB0EE4C1AF0EE6C1A9FED750B07F043
:100B20002FF9B0EE40BAF0EE60BA9FED780B53ECBF
:100B3000102B51EC1B0B08F05FFF41EC190B7048B8
:100B4000006809F0F7FA41EC1A0B53EC192B08F086
:100B5000A9FC41EC180B08F073FC6A4908602BE013
:100B60006248006808F0E1FE41EC1C0BB0EE4C1A44
:100B7000F0EE6C1A9FED5E0B07F002F9B0EE40BA92
:100B8000F0EE60BA9FED630B53EC102B51EC1B0B96
:100B900008F032FF41EC1A0B5948006809F0CAFA14
:100BA00041EC180B53EC1A2B08F07CFC41EC190BB0
:100BB00008F046FC5349086001F086F94B4800688C
:100BC000401C4A49086000BFBDEC0A8B10BD10B53F
:100BD000142001F034FD322001F056FD4048007829
:100BE000012811D13F48007870B900204B490860B6
:100BF00005E0282001F0B5FD642002F0BBF839487B
:100C000000780028F5D060E035480078D8B935483C
:100C10000078C0B90020414908600BE00A2001F0CB
:100C20005AFD642002F0A6F80A2001F09AFD322055
:100C300002F0A0F82A4800780028EFD02948007870
:100C40000028EBD041E02648007890B9254800788C
:100C500001280ED100203149086005E00A2001F08A
:100C600080FD642002F086F81D4800780028F5D049
:100C70002BE01B480078012827D11A48007801286A
:100C800023D126480068401C24490860052002F052
:100C900071F822480068B0F5967F16DD14240BE049
:100CA000322C00DA641C204601F0C9FC322001F02D
:100CB000EBFC642002F05EF809480078012803D1BB
:100CC000084800780128EBD000BF10BD16000020B6
:100CD00018000020200000201A0000201C00002026
:100CE00014000020150000202C000020240000200B
:100CF000000000000000F0BF713D0AD7A370F93F6B
:100D000034000020C000002070000020EC51B81E0C
:100D100085EBF93F9A9999999999FD3F2800002010
:100D200000B589B00121084602F0F3FC012103203F
:100D300002F0A6FC4FF40040019003208DF809005A
:100D400002208DF8080001208DF80A008DF80B00B4
:100D500001A9724802F0F6F90820019003208DF8ED
:100D6000090002208DF8080001208DF80A008DF896
:100D70000B0001A96A4802F0E5F901220F2167483A
:100D800002F06BFA01220321654802F066FA06A818
:100D900003F0DBFC0020ADF818004FF6FF70079061
:100DA0000020ADF82000ADF81A0006A94FF08040F1
:100DB00003F097FC00231A4603214FF0804004F013
:100DC00004FA03A804F09BF80020ADF8140003A96E
:100DD0004FF0804004F05CF80121880704F036F9F8
:100DE00001221146900704F01DF900214FF08040C8
:100DF00003F0C0FC0121880703F0FCFC09B000BD32
:100E000000B589B00121082002F083FC01210846C9
:100E100002F036FC02220021404802F01EFA0222B3
:100E200001213E4802F019FA0320019002208DF8BA
:100E300009008DF8080001208DF80A008DF80B00DC
:100E400001A9364802F07EF906A803F07EFC0020D6
:100E5000ADF818004FF6FF7007900020ADF82000A5
:100E6000ADF81A0006A92F4803F03BFC00231A46F0
:100E700003212C4804F0A9F903A804F040F800204D
:100E8000ADF8140003A9274804F002F80121254811
:100E900004F0DCF801221146224804F0C3F80021D6
:100EA000204803F067FC01211E4803F0A3FC09B0B1
:100EB00000BD0146022902D0052912D108E04FF0F9
:100EC0008042526A10B200224FF080435A620AE018
:100ED000144A2432126810B20022124B24331A60D2
:100EE00001E0002000BF00BF70474FF08040008A43
:100EF0004FF08040008A20F001004FF080410882CE
:100F0000704708481030008806481030008820F0EC
:100F100001000449103108807047000000000240C1
:100F200000040240000C004070B505460C464FF42A
:100F30008051FE4802F082F9204601F0F1FE4FF4A4
:100F40008051FA4802F07CF9281B01F0E9FE70BDDF
:100F50007FB505460C460121080202F0DAFB029536
:100F6000ADF804400020ADF80600ADF80C0001A972
:100F7000EF4803F0B6FB01221146ED4804F052F8A9
:100F80000121EB4803F036FC2D208DF800000120F4
:100F90008DF8010003208DF8020001208DF8030078
:100FA000684601F0DEFF7FBD10B52DED108B0121ED
:100FB000DF4804F04EF800287ED00220FFF779FFCA
:100FC000DC4908600520FFF774FF4042DA490860F9
:100FD000DA48006809680844D8490860D64890EDA6
:100FE000000AB8EEC00AD648D0ED000A20EE200A6A
:100FF000D448D0ED000A20EE200AD348D0ED000AF4
:1010000080EE201AD14880ED001ACA4890ED000AFF
:10101000B8EEC00ACA48D0ED000A20EE200AC9483E
:10102000D0ED000A20EE200AC948D0ED000A80EE7B
:10103000201AC84880ED001AC44890ED000AC04844
:1010400090ED001AC0EE010AC34890ED000A30EEA0
:10105000800A80ED000ABF4890ED000AB848D0ED44
:10106000000A80EE201ABD4890ED000A31EE000A19
:1010700080ED000AB84890ED000ADFEDB90A20EED5
:10108000200ABDEEC00AB74880ED000AB34890EDD3
:10109000000ADFEDB30A20EE200ABDEEC00AB24816
:1010A00080ED000AA94890ED000AAA48D0ED000A98
:1010B00070EE600AAD4800E090E190ED001A80EE1D
:1010C000810A9F48D0ED000A80EE201AA84880EDE2
:1010D000001AA84890ED000AA548D0ED000A30EEAD
:1010E000200AA44880ED000AA148006809F022F80F
:1010F00041EC1B0BB0EE4B0AF0EE6B0A07F068FCFC
:10110000B0EE409AF0EE609A9848D0ED000AB0EE4A
:10111000001A80EE810A8D48D0ED000A8D4890EDCE
:10112000001A70EE810A20EE200A8848D0ED000AED
:10113000884890ED001A70EEC10A80EE201A11EE78
:10114000104A204608F0F6FF41EC1A0B53EC192B1D
:1011500008F052FC41EC180B08F072F9864908605F
:101160008348006808F0E6FF41EC1C0BB0EE4C0A27
:10117000F0EE6C0A06F014FDB0EE40BAF0EE60BA84
:101180009FED7E0B53EC102B51EC1B0B08F010FE67
:1011900041EC190B7548D0ED000AB0EE001A80EE54
:1011A000810A6A48D0ED000A6A4890ED001A70EE94
:1011B000810A20EE200A6548D0ED000A654890EDCE
:1011C000001A70EEC10A80EE201A11EE104A204675
:1011D00008F0B0FF41EC1A0B53EC192B08F00CFC93
:1011E00041EC180B08F02CF966490860574890ED5F
:1011F000000A5848D0ED000AB4EE600AF1EE10FA89
:101200007ED05C48006808F095FF41EC1F0BB0EE03
:101210004F0AF0EE6F0A07F0DBFBB0EE40DAF0EEBB
:1012200060DA5848006808F085FF41EC1E0B53EC6B
:101230001D2B08F0E1FB41EC1B0B4E48006808F049
:1012400079FF41EC1F0BB0EE4F0AF0EE6F0A06F08B
:10125000A7FCB0EE40DAF0EE60DA4748006808F02C
:1012600069FF41EC1E0B53EC1D2B08F0C5FB41EC54
:101270001C0B53EC1B2B08F073FE41EC190B42487E
:10128000006808F057FF41EC1A0B53EC192B08F0DB
:1012900009F941EC180B08F0D3F83B4908603548D0
:1012A000006808F047FF41EC1F0BB0EE4F0AF0EE6C
:1012B0006F0A07F08DFBB0EE40DAF0EE60DA2E48F0
:1012C000006808F037FF41EC1E0B53EC1D2B08F0B3
:1012D00093FB41EC1B0B2748006808F02BFF41EC07
:1012E0001F0BB0EE4F0AF0EE6F0A06F059FCB0EE9D
:1012F00040DAF0EE60DA2348006808F01BFF00E0F7
:1013000050E041EC1E0B53EC1D2B08F075FB41EC3B
:101310001C0B53EC1B2B08F0C5F841EC190B1B48B8
:10132000006808F007FF41EC1A0B31E000040240AE
:1013300000200040580000205400002098000020A9
:101340004000002044000020480000203800002019
:101350004C0000203C000020740000207800002099
:101360000000C8427C0000208000002050000020C7
:1013700030000020340000205C000020000000004D
:101380000000F03F600000206400002068000020A2
:1013900053EC192B08F086F841EC180B08F050F8C4
:1013A000B7490860B74890ED000A5FED130A20EED8
:1013B000200ABDEEC00AB44880ED000AB04890EDA6
:1013C000000A5FED190A20EE200ABDEEC00AAF4800
:1013D00080ED000A0121AE4803F04CFEBDEC108BFD
:1013E00010BD00B58BB00121042002F092F901215B
:1013F000022002F045F9C020099002208DF8280053
:1014000003208DF8290000208DF82A008DF82B008C
:1014100009A9A04801F096FE022206219D4801F08C
:101420001CFF022207219B4801F017FF6320079051
:101430007720ADF818000020ADF82000ADF81A00B4
:1014400006A9954803F04DF96020ADF8040001208D
:10145000ADF806000020ADF8100001A98E4803F099
:10146000D5F908218C4803F05EFB01A98A4803F0F6
:1014700006FA0821884803F05FFB0121864803F043
:10148000B9F90BB000BD30B58DB004460D46012151
:10149000084602F04FF90121102002F0F1F8012175
:1014A000022002F0EDF8012209217C4801F0D5FE6E
:1014B00001220B21794801F0D0FE01220F2175484D
:1014C00001F0CBFE4FF420600B9002208DF830002D
:1014D00003208DF8310000208DF8320001208DF8B6
:1014E00033000BA96D4801F02DFE4FF40040019030
:1014F00002208DF8080003208DF8090000208DF8E7
:101500000A0001208DF80B0001A9624801F01AFEC3
:10151000A8B2ADF820000020ADF822000994ADF883
:10152000280008A95E4803F0DCF86020ADF80C0044
:101530000120ADF80E000020ADF818000420ADF831
:1015400010000020ADF81A00ADF81C00ADF81E0028
:1015500003A9534803F05AF903A9514803F08FF93E
:1015600003A94F4803F0D8F901214D4803F033FD9A
:1015700008214B4803F0D7FA0821494803F0DCFA68
:101580000821474803F0E5FA0121454803F014F922
:101590000121434803F02EF90DB030BD7FB505465B
:1015A0000C460121022002F0B4F80295ADF8044087
:1015B0000020ADF80600ADF80C0001A9394803F091
:1015C00090F80121374803F055FD012211463548B6
:1015D00003F028FD1D208DF8000001208DF801008A
:1015E00003208DF8020001208DF80300684601F009
:1015F000B8FC01212B4803F0FDF87FBD10B5012197
:10160000284803F026FD0121264803F033FD10BDD4
:1016100010B50121244803F01CFD18B10121224816
:1016200003F028FD10BD7FB505460C4601211020B2
:1016300002F06FF80195A0B2ADF800000020ADF8FF
:101640000800ADF802006946174803F04AF8012285
:101650001146154803F0E6FC0121134803F0CAF8CF
:1016600036208DF80C0000208DF80D0001208DF83B
:101670000E008DF80F0003A801F073FC7FBD000081
:1016800068000020640000206C0000207000002032
:10169000002000400004024000080040001002400A
:1016A000000001400004004000100040B0EE401A6D
:1016B00031EE600AFE4880ED000AFE4890ED000A17
:1016C000FB48D0ED001A30EE210AFA4880ED000AFE
:1016D000F74890ED000AF848D0ED001A30EE610AA4
:1016E000F64880ED000AF24890ED000AF24880EDDD
:1016F000000AF04890ED000ADFEDF11AB4EEE10ABD
:10170000F1EE10FA03DB9FEDEE0A80ED000AE948E6
:1017100090ED000ADFEDEB1AB4EEE10AF1EE10FAFB
:1017200003D89FEDE80A80ED000AB5EEC01AF1EE8D
:1017300010FA04D19FEDE40ADE4880ED000ADC488F
:1017400090ED000AF3EE041A20EE210AD948D0EDFC
:10175000001AB7EE002A01EE820AD848D0ED001A2E
:101760009FEDD92A01EE820AD84880ED000A90ED5B
:10177000000ADFEDD71AB4EEE10AF1EE10FA03DB4E
:101780009FEDD30A80ED000AD04890ED000ADFED0E
:10179000D11AB4EEE10AF1EE10FA03D89FEDCD0AAA
:1017A00080ED000AC94890ED000A704710B52DED94
:1017B0000E8BB0EE408AF0EE608A38EE680AC648BA
:1017C00080ED000AC54890ED000AC348D0ED000A3C
:1017D00030EE200AC14880ED000ABF4890ED000AB3
:1017E000BF48D0ED000A30EE600ABE4880ED000A26
:1017F000B94890ED000ABA4880ED000AB74890ED6C
:10180000000ADFEDAF0AB4EEE00AF1EE10FA03DBF6
:101810009FEDAB0A80ED000AB04890ED000ADFEDC5
:10182000A90AB4EEE00AF1EE10FA03D89FEDA50A7A
:1018300080ED000AB5EEC08AF1EE10FA04D19FEDFA
:10184000A20AA64880ED000AA64890ED000ADFED46
:101850009E0A20EE200A10EE101A084608F06AFCD4
:1018600041EC1A0B9D48006808F064FC41EC1E0B2B
:101870009FED9D0B53EC102B08F0BEF841EC1C0BB8
:10188000954890ED000AF3EE040A20EE200A10EECF
:10189000101A084608F04EFC41EC1D0B53EC1C2BB3
:1018A00007F000FE41EC1B0B53EC1A2B07F0FAFD7E
:1018B00041EC190B07F0C4FD8D490860084690ED16
:1018C000000ADFED830AB4EEE00AF1EE10FA03DB62
:1018D0009FED7F0A80ED000A854890ED000ADFED5C
:1018E0007D0AB4EEE00AF1EE10FA03D89FED790A12
:1018F00080ED000A7E4890ED000ABDEC0E8B10BD15
:10190000B0EE401A30EEC10A7A4880ED000A90ED40
:10191000000A7948D0ED001A30EE610A7748D0ED20
:10192000001A20EE210A7648D0ED001A714890ED99
:10193000002A01EE820AD0ED001A6F4890ED002ACD
:10194000F0EE002A42EEC21A6E4890ED002A71EEC7
:10195000821A6D4890ED002A02EE210A6B48D0ED04
:10196000001A30EE210A80ED000A624890ED000A6C
:10197000614880ED000A90ED000A624880ED000A9F
:10198000624890ED000A7047B0EE401A30EEC10A8E
:101990005F4880ED000A90ED000A5E48D0ED001A25
:1019A00030EE610A5548D0ED001A20EE210A544865
:1019B000D0ED001A564890ED002A01EE820AD0EDD3
:1019C000001A544890ED002AF0EE002A42EEC21AA6
:1019D000514890ED002A71EE821A4B4890ED002A92
:1019E00002EE210A4D48D0ED001A30EE210A80EDBA
:1019F000000A474890ED000A464880ED000A90ED45
:101A0000000A454880ED000A444890ED000A7047FE
:101A100070B52DED0E8BF0EE408AB0EE608A404836
:101A2000D0ED000A9FED2A1AB0EE680A00EEC10A56
:101A300020EE000A3B4890ED001ADFED251AF0EE8B
:101A4000480A41EE610AD0ED001A9FED212AB0EE5E
:101A5000481A01EEC21A00EE810A10EE101A08466A
:101A600008F068FB41EC1A0BB0EE4A0AF0EE6A0A85
:101A700007F012F8B0EE409AF0EE609A51EC190BB4
:101A800007F0DEFC05462748D0ED000A9FED101A4E
:101A9000B0EE480A00EEC10A214890ED001ADFEDD1
:101AA0000C1AF0EE680A41EE610A80EE201A3BE063
:101AB000CC000020D4000020DC000020D800002052
:101AC00000001643000016C300000000D0000020F4
:101AD0000000C8420000C8C2E0000020E80000206A
:101AE000F0000020EC0000209A9999999999E93F1B
:101AF000E4000020F4000020FC0000209C000020F6
:101B0000A000002000010020A4000020F800002018
:101B1000040100200C010020100100200801002019
:101B2000640000206800002011EE106A304608F0C2
:101B300001FB41EC1A0BB0EE4A0AF0EE6A0A05F01E
:101B4000C3FEB0EE409AF0EE609A51EC190B07F02C
:101B500077FC0446204608F0EDFA41EC1E0BB0EE8F
:101B60004E0AF0EE6E0A06F01BF8B0EE40CAF0EE38
:101B700060CA284608F0DEFA41EC1D0B53EC1C2B22
:101B800007F03AFF41EC1A0BFE48006807F0CDFE63
:101B900041EC1B0B53EC1A2B07F084FC41EC190BA6
:101BA00007F04EFCF8490860F84890ED000AB8EEDE
:101BB000C00A0846D0ED000A30EE200AF44880ED55
:101BC000000ABDEC0E8B70BD70B52DED0E8BF0EEE6
:101BD000408AB0EE608AEF48D0ED000A1FED441A4B
:101BE000B0EE680A00EEC10A20EE000AEA4890ED65
:101BF000001A5FED491AF0EE480A41EE610AD0ED95
:101C0000001A1FED4D2AB0EE481A01EEC21A00EE7E
:101C1000810A10EE101A084608F08CFA41EC1A0BF3
:101C2000B0EE4A0AF0EE6A0A06F036FFB0EE409ACD
:101C3000F0EE609A51EC190B07F002FC0546D6480D
:101C4000D0ED000A1FED5E1AB0EE480A00EEC10AA0
:101C5000D04890ED001A5FED621AF0EE680A41EE8E
:101C6000610A80EE201A11EE106A304608F062FA1E
:101C700041EC1A0BB0EE4A0AF0EE6A0A05F024FEB7
:101C8000B0EE409AF0EE609A51EC190B07F0D8FBD9
:101C90000446204608F04EFA41EC1E0BB0EE4E0A08
:101CA000F0EE6E0A06F094FEB0EE40CAF0EE60CAA6
:101CB000284608F03FFA41EC1D0B53EC1C2B07F0B3
:101CC0009BFE41EC1A0BAF48006807F02EFE41EC7A
:101CD0001B0B53EC1A2B07F0E5FB41EC190B07F03B
:101CE000AFFBA9490860A94890ED000AB8EEC00A08
:101CF0000846D0ED000A30EE200AA54880ED000A23
:101D0000BDEC0E8B70BD3C2801DD3C2004E010F1E1
:101D10003C0F01DA6FF03B00704770B52DED048B7E
:101D2000B0EE408AF0EE609AF0EE488AB0EE489A43
:101D30009A48D0ED000AB0EE680AFFF7B7FC984861
:101D400080ED000A9748D0ED000AB0EE490AFFF78F
:101D50002DFD954880ED000A914890ED000ABDEEFA
:101D6000C00A10EE104A904890ED000ABDEEC00A7D
:101D700010EE105A2046FFF7C6FF04462846FFF72C
:101D8000C2FF0546204600F05AFC284600F07CFCC5
:101D9000BDEC048B70BD70B57B48D0ED000A79486E
:101DA00090ED000AB8EEC00AFFF7AAFD7C4880ED6E
:101DB000000A7748D0ED000A744890ED000AB8EEAA
:101DC000C00AFFF7E1FD784880ED000A744890ED05
:101DD000000ABDEEC00A10EE104A734890ED000AEA
:101DE000BDEEC00A10EE105A2046FFF78CFF0446E5
:101DF0002846FFF788FF0546204600F020FC2846CD
:101E000000F042FC70BDF0EE400A684890ED000A18
:101E100030EEC00A664880ED000A90ED000A654881
:101E200090ED001A30EE410A634890ED001A20EE62
:101E3000010A624890ED001A5D48D0ED001A01EEEB
:101E4000210A90ED001A5B48D0ED001AB0EE002A8E
:101E500002EE611A5A48D0ED001A31EE211A5948A3
:101E6000D0ED001A01EE810A574890ED001A30EECD
:101E7000010A80ED000A4E4890ED000A4D4880EDC1
:101E8000000A90ED000A4E4880ED000A4E4890EDA1
:101E9000000A704710B54D4890ED000AFFF7B3FFF8
:101EA0004B4880ED000A90ED000ABDEEC00A10EE2E
:101EB000104A2046FFF727FF0446204600F0BFFBEC
:101EC000604200F0E1FB10BD10B52DED048B01E088
:101ED000FFF7E0FF3D4890ED000A3448D0ED000ADE
:101EE00030EE600A10EE101A084608F023F941ECB3
:101EF000190BB0EE490AF0EE690A05F0B5FEB0EE36
:101F0000408AF0EE608A9FED330B53EC102B51ECBE
:101F1000180B07F017FFDBD32D48006808F00AF90B
:101F200041EC190BB0EE490AF0EE690A05F09CFE8F
:101F3000B0EE408AF0EE608A9FED280B53EC102B38
:101F400051EC180B07F0FEFEC2D3BDEC048B10BDA4
:101F500010B52DED088B04469FED220AB0EE408AA5
:101F600094ED000A10EE101A084608F0E3F841EC70
:101F70001B0B9FED1D0B53EC102B07F093FA41EC5C
:101F80001A0B35E07C0000208C000020800000202F
:101F9000900000206400002068000020380000202D
:101FA000840000203C000020880000203400002035
:101FB000140100201C010020A8000020AC0000201B
:101FC00020010020B000002018010020C0000020E7
:101FD000B4000020EC51B81E85EBB13F00000000BA
:101FE00000001440000000001F85EB51B81E09409E
:101FF0009FEDFE1BB0EE4A0AF0EE6A0A05F03EFEC7
:10200000B0EE409AF0EE609A51EC190B07F018FA16
:1020100008EE100AB5EEC08AF1EE10FA11D218EEF1
:10202000100A08F087F841EC1A0B9FEDF00B53EC07
:10203000102B07F037FA41EC190B07F001FA08EE04
:10204000100A18EE100A08F075F841EC1A0B1FED93
:102050001A0B53EC102B07F083FF41EC190B07F020
:10206000EFF908EE100AB0EE480ABDEC088B10BD7F
:1020700010B52DED048B4CE0DE48007818B1DE4839
:102080000078002843D10A2000F025FB4FF47A7035
:1020900000F070FED948006808F04CF841EC190BCC
:1020A0009FEDD70B53EC102B07F0FCF941EC180B0C
:1020B00007F0C6F9D4490860FFF706FF142000F0C6
:1020C0009BFA4FF4FA6000F055FECC48006808F027
:1020D00031F841EC190B9FEDCA0B53EC102B07F0B4
:1020E0003FFF41EC180B07F0ABF9C7490860FFF759
:1020F000EBFE142000F080FA4FF47A7000F03AFE04
:102100000120C2490860522000F0BAFD7BE0FFF7D1
:1021100042FEBF48D0ED000ABE4890ED000AB8EE7E
:10212000C00A30EEC00A10EE101A084608F002F895
:1021300041EC190BB0EE490AF0EE690A05F094FD86
:10214000B0EE408AF0EE608A9FEDB30B53EC102B9B
:1021500051EC180B07F0F6FD8ED3B148D0ED000A14
:10216000B04890ED000AB8EEC00A30EEC00A10EE9A
:10217000101A084607F0DEFF41EC190BB0EE490AD1
:10218000F0EE690A05F070FDB0EE408AF0EE608A6C
:102190009FEDA10B53EC102B51EC180B07F0D2FD67
:1021A000DAD3A148006807F0C5FF41EC190BB0EE87
:1021B000490AF0EE690A05F057FDB0EE408AF0EEEC
:1021C000608A9FED9A0B53EC102B51EC180B07F023
:1021D000B9FDC1D39748006807F0ACFF41EC180B7C
:1021E000B0EE480AF0EE680A05F03EFDB0EE409A07
:1021F000F0EE609A9FED8D0B53EC102B51EC190B08
:1022000007F0A0FDA8D300BFBDEC048B10BD10B536
:102210002DED108B8AB0884890ED000A8748D0EDEC
:10222000000A9FED871A00EEC10A20EE000A8548D9
:10223000D0ED000A844890ED001ADFED811A41EEDE
:10224000610A804890ED001A7F48D0ED001A9FED9A
:102250007C2A01EEC21A00EE810A10EE101A08461E
:1022600007F068FF41EC1B0BB0EE4B0AF0EE6B0A77
:1022700006F012FCB0EE40AAF0EE60AA51EC1A0B88
:1022800007F0DEF808EE900A6E4890ED000A6E48FE
:10229000D0ED000A9FED6A1A00EEC10A6648D0ED43
:1022A000000A664890ED001ADFED651A41EE610AFA
:1022B00080EE201A8DED091AB7EE000AB0EE409AB2
:1022C0001FEDB80AF0EE409A5B4890ED000A5B48BB
:1022D000D0ED000A9FED5A1A00EEC10AB0EE40EAB6
:1022E000584890ED000A5848D0ED000A9FED541A66
:1022F00000EEC10AB0EE408A18EE100A07F01AFF8D
:1023000041EC1D0B9FED511BB0EE4D0AF0EE6D0A36
:1023100005F036FDB0EE40BAF0EE60BA1EEE100ADF
:1023200007F008FF41EC1D0B9FED481BB0EE4D0A76
:10233000F0EE6D0A05F024FDB0EE40CAF0EE60CA82
:1023400053EC1B2B51EC1C0B07F0ACF841EC1A0BB7
:10235000B0EE4A0AF0EE6A0A06F09EFB8DED020B23
:1023600019EE900A07F0E6FE41EC1C0B9FED371BBF
:10237000B0EE4C0AF0EE6C0A05F002FDB0EE40BA89
:10238000F0EE60BA19EE100A07F0D4FE41EC1C0B17
:102390009FED2E1BB0EE4C0AF0EE6C0A05F0F0FC3F
:1023A000B0EE40DAF0EE60DA53EC1B2B51EC1D0B73
:1023B00007F078F841EC1A0BB0EE4A0AF0EE6A0A20
:1023C00006F06AFB8DED000B9DED020B53EC102B1C
:1023D0009DED000B51EC100B07F00EFB41EC1F0BB9
:1023E00029EE0E0A09EE880A34E000001F85EB5141
:1023F000B81E1940140000201500002034000020F1
:102400001F85EB51B81EF93FC0000020BC00002022
:102410008C0000207C00002000000000000008402C
:1024200090000020800000208400002000000000B8
:102430000000104088000020C4000020640000203C
:102440000000C842C8000020680000200000000012
:102450000000004010EE101A084607F06BFE53EC27
:102460001F2BCDE904019DED040B51EC100B07F07F
:10247000D5F8CDE906019DED060B51EC100B06F0E9
:10248000DFFF04462F48FFF763FDF0EE40EA2D48DA
:10249000C0ED00EA9FED2C0A8DED080AB5EEC08A6A
:1024A000F1EE10FA14DD204607F044FE41EC1B0B60
:1024B000B0EE4B0AF0EE6B0A05F05AF8B0EE40AA07
:1024C000F0EE60AA51EC1A0B06F0BAFF089017E084
:1024D000204607F02FFE41EC1C0BB0EE4C0AF0EE4C
:1024E0006C0A05F045F8B0EE40BAF0EE60BA51EC77
:1024F0001B0B06F098FF41EC1A0B06F0A1FF0890A9
:102500009DED080A114880ED000AFFF7DDFC104838
:1025100090ED000AB8EEC00A30EE280A0D4880EDB2
:10252000000A0D4890ED000AB8EEC00A30EE280A05
:102530000A4880ED000AFFF79BFD0AB0BDEC108B46
:1025400010BD00003400002000000000C00000208A
:102550007C0000208C0000208000002090000020E3
:102560001CB50121102001F08BF84FF4565000905B
:1025700001208DF8040000208DF806008DF805007C
:102580008DF807006946954800F0DCFD0121022026
:1025900001F076F84FF48050009001208DF804008F
:1025A00000208DF806008DF805008DF807006946BB
:1025B0008B4800F0C7FD0121082001F061F84FF4BD
:1025C0008050009000208DF804008DF807006946C7
:1025D000844800F0B7FD0121042001F051F84FF4C8
:1025E0008040009000208DF804008DF807006946B7
:1025F0007D4800F0A7FD1CBD10B5044621467B4870
:1026000002F05DFA2146794802F05BFA80217348B6
:1026100000F016FE4FF48071704800F00FFE4FF48A
:1026200080516E4800F00AFE4FF400516B4800F0F4
:1026300007FE4FF48061694800F000FE10BD10B540
:102640000446002C0DDD8021644800F0F9FD4FF4B4
:102650008071624800F0F2FD2146644802F02FFAD2
:102660000CE080215D4800F0E9FD4FF480715B488B
:1026700000F0E6FD61425D4802F021FA4FF480610E
:10268000564800F0DBFD10BD10B50446002C0EDDF1
:102690004FF48051514800F0D1FD4FF400514F48A4
:1026A00000F0CEFD2146514802F00BFA0DE04FF448
:1026B00080514A4800F0C4FD4FF40051474800F0F3
:1026C000BDFD6142494802F0FCF94FF48061434886
:1026D00000F0B4FD10BD10B504462146434802F099
:1026E000EEF92146414802F0ECF980213B4800F028
:1026F000A5FD4FF48071394800F0A2FD4FF48051E0
:10270000364800F09DFD4FF40051344800F096FD2E
:102710004FF48061314800F091FD10BD10B50446C2
:102720002146324802F0CBF92146304802F0C9F97F
:1027300080212A4800F082FD4FF48071274800F084
:102740007FFD4FF48051254800F078FD4FF4005193
:10275000224800F075FD4FF48061204800F06EFDC6
:1027600010BD10B504462146204802F0A8F92146C4
:102770001E4802F0A6F98021184800F061FD4FF4D0
:102780008071164800F05AFD4FF48051134800F054
:1027900057FD4FF40051114800F050FD4FF4806197
:1027A0000E4800F04BFD10BD10B580210B4800F025
:1027B00047FD4FF48071094800F042FD4FF480510D
:1027C000064800F03DFD4FF40051044800F038FD8C
:1027D0004FF48061014800F033FD10BD001002404D
:1027E00000040240000C02400008024000000140CA
:1027F00010B588B00446FE4801F096F80121022089
:1028000000F03EFF0121880400F083FF4FF4406098
:10281000059002208DF818008DF8190000208DF821
:102820001A0001208DF81B0005A9F24800F08AFC6F
:1028300007220B21EF4800F010FD07220A21ED4886
:1028400000F00BFD01940020ADF80800ADF80A007F
:10285000ADF80C00ADF810000C20ADF80E0001A989
:10286000E34801F0C8F8012240F22551E04801F0A8
:1028700000FA0121DE4801F046F927208DF81C00FE
:1028800002208DF81D0003208DF81E0001208DF818
:102890001F0007A800F065FB08B010BD70B52DED56
:1028A0000C8BD5480078782803D10120D3490860E3
:1028B00033E0D1480078792806D10120D04908605A
:1028C0000220CE49086028E0CB480078772803D161
:1028D0000220CB49086020E0C7480078752803D162
:1028E0000120C849086018E0C3480078762804D160
:1028F0004FF0FF30C34908600FE0BF4800787428EC
:1029000004D14FF0FF30C049086006E0BA480078B3
:10291000732802D10120BC490860B848006801282A
:102920001DD1B5480078782819D0B34800787528AB
:1029300015D0B1480078762811D0AF4800787328B8
:102940000DD0AD480078742809D0AB480178AF4865
:1029500002680068401CAD4B1860AD488154A8481F
:10296000006801281DD1A4480078792819D0A24810
:102970000078752815D0A0480078762811D09E4898
:10298000007873280DD09C480078742809D09A48A4
:102990000178A04802680068401C9E4B18609E4861
:1029A00081549648006802287DD195480068022825
:1029B000FAD1002099490860994908609348006855
:1029C000441E94480068451E34E091498F4A1268BD
:1029D000895CA1F1300006F0A8FF41EC1B0B8B498C
:1029E0000968601A06F0A1FF41EC1D0BB0EE4D1A0C
:1029F000F0EE6D1A9FED8B0B05F0C2F9B0EE40CAF8
:102A0000F0EE60CA53EC1B2B51EC1C0B06F0F4FFEC
:102A100041EC190B8148006806F087FF41EC1A0B66
:102A200053EC192B06F03EFD41EC180B06F04EFF5F
:102A30007A490860754801680068401E734A106052
:102A40000029C2D136E07449724A1268895CA1F14A
:102A5000300006F06AFF41EC1B0B6E490968681AEA
:102A600006F063FF41EC1D0BB0EE4D1AF0EE6D1A4F
:102A70009FED6C0B05F084F9B0EE40CAF0EE60CA31
:102A800053EC1B2B51EC1C0B06F0B6FF41EC190B61
:102A90006348006806F049FF41EC1A0B53EC192B10
:102AA00006F000FD00E035E041EC180B06F00EFFEB
:102AB0005B490860574801680068401E554A10602D
:102AC0000029C0D100204D4908604D4908604F4998
:102AD000086011460860514800684B49096848433E
:102AE00000EE100AB8EEC00A504880ED000A4C48CB
:102AF000006844490968484300EE100AB8EEC00A6D
:102B00004B4880ED000A55204A49087001204A4987
:102B1000086009E03948006830B93948006818B9D8
:102B20003548007843490870BDEC0C8B70BD10B57A
:102B300040F225512E4801F0D7F870B12C4801F031
:102B400011F82D4908703C48006808B9FFF7A6FE47
:102B500040F22551264801F002F910BD10B540F2AF
:102B60002551364801F0C0F848B1344800F0FAFF6A
:102B70003349087040F22551304801F0F0F810BD9B
:102B800010B588B004460121082000F079FD01212C
:102B9000480400F0BEFD072205212A4800F05DFB35
:102BA00007220621274800F058FB602006900220EB
:102BB0008DF81C0000208DF81E0002208DF81D00ED
:102BC00001208DF81F0006A91E4800F0BBFA262040
:102BD0008DF8040001208DF8050000208DF8060016
:102BE00001208DF8070001A800F0BBF902942BE04A
:102BF0000048004000040240240100203C01002065
:102C00004001002054010020500100202C01002030
:102C10002601002034010020300100204401002062
:102C2000480100200000000000002440C4000020F3
:102C3000C8000020380100204C0100200044004062
:102C400025010020000C02400020ADF80C00ADF87A
:102C50000E00ADF81000ADF814000C20ADF8120015
:102C600002A90D4800F0C7FE012240F225510A4892
:102C700000F0FFFF0121084800F045FF08B010BD3B
:102C80000649088000BF0549091F098801F0400175
:102C90000029F8D07047000000440040044800407C
:102CA00010B502F055FC10BD10B502F096FC10BD39
:102CB00010B50446204604F0DDF910BD10B53E48BD
:102CC0000078012805D102F0F0FB02F034FD02F09B
:102CD00007FC10BD70B504466FF0040000F08EF9DB
:102CE000E11704EB5171C1F3C701344A1170E117C8
:102CF00004EB5171CD1041F2883045430520304935
:102D000008804FF0E020006940F002004FF0E02121
:102D1000086108464561006940F00100086170BD26
:102D20002DE9F047074600264FF0E020D0F8149038
:102D30002248007807FB00F8FFF7B2FF4FF0E020D1
:102D4000856911E04FF0E0208469AC420CD0AC42C0
:102D500002D2281B064403E0A9EB040028440644E1
:102D60002546464500D300E0ECE700BFFFF79CFF97
:102D7000BDE8F08770B504460F480078A0B111484F
:102D8000007888B90E480088844206DB0C48008829
:102D900094FBF0F52846FFF78BFF0948008894FB69
:102DA000F0F100FB114084B24FF47A7104FB01F0A2
:102DB000FFF7B6FF70BD00009A0100205801002007
:102DC0005A0100208D01002000BF704700BF4E4A0D
:102DD000128802F04002002AF9D0C2B24A4B9A800F
:102DE000704710B588B004460121084600F048FC41
:102DF0000121102000F09EFC07220921434800F029
:102E00002CFA07220A21414800F027FA4FF4C0604B
:102E1000069002208DF81C008DF81D0000208DF812
:102E20001E0001208DF81F0006A9384800F08AF91D
:102E300002940020ADF80C00ADF80E00ADF81000C3
:102E4000ADF814000C20ADF8120002A92E4800F0D5
:102E5000D2FD01212C4800F056FE012240F22551FE
:102E6000294800F006FF25208DF8040003208DF886
:102E700005008DF8060001208DF8070001A800F07C
:102E800070F808B010BD10B502F00FFB40F22551EC
:102E90001D4800F029FF10B31B4800F063FEC4B2C8
:102EA0001B48008800F40040C8B91948008800F4A5
:102EB000804060B10A2C03D000201549088020E032
:102EC0001348008840F400401149088019E00D2C97
:102ED00006D10F48008840F480400D49088010E07A
:102EE0000B480088C0F30D000A490C5408480088BC
:102EF000401C0749088008460088C72801DD0020DB
:102F0000088002F0EDFA10BD001001400000024000
:102F100060010020D0170020094880470948004779
:102F2000FEE7FEE7FEE7FEE7FEE7FEE7FEE7FEE779
:102F3000FEE7FEE704480549054A064B70470000D6
:102F400071060008890100087823002078290020F4
:102F5000782500207825002032490143324A11604B
:102F6000704770B5002100230F22C4781CB32E4C8B
:102F7000246804F4E064C4F5E064C4F30721C1F1FB
:102F80000404E3B20A4144789C40E1B284781440DE
:102F900021430C07210E254C05786155047804F077
:102FA0001F050124AC4005786D11AD0005F1E02549
:102FB000C5F8004109E0047804F01F050124AC4085
:102FC0001B4D0678761145F8264070BD194A0A4017
:102FD0000243154B1B1F1A60704739B1124A121D6C
:102FE00012680243104B1B1D1A6006E00E4A121DA8
:102FF000126882430C4B1B1D1A607047042808D1CD
:103000004FF0E021096941F004014FF0E022116125
:1030100007E04FF0E021096921F004014FF0E022C0
:10302000116170470000FA050CED00E000E400E0DB
:1030300080E100E080FFFF1F10B5044698488442FD
:1030400008D10121084600F086FB0021012000F094
:1030500082FB76E09348844208D10121022000F0EF
:103060007AFB0021022000F076FB6AE08E48844261
:1030700008D10121042000F06EFB0021042000F0A3
:103080006AFB5EE08948844208D10121082000F0F3
:1030900062FB0021082000F05EFB52E0844884427D
:1030A00008D10121102000F056FB0021102000F073
:1030B00052FB46E07F48844208D10121202000F0E5
:1030C0004AFB0021202000F046FB3AE07A48844287
:1030D00008D10121402000F03EFB0021402000F0FB
:1030E0003AFB2EE07548844208D10121802000F08F
:1030F00032FB0021802000F02EFB22E07048844249
:1031000008D10121801500F026FB0021A01500F058
:1031100022FB16E06B48844208D10121401500F0E3
:103120001AFB0021601500F016FB0AE06648844295
:1031300007D10121001500F00EFB0021201500F041
:103140000AFB10BDF0B50A4600210023002400BF91
:103150003DE0012505FA01F3156805EA03049C42E8
:1031600034D105684F000326BE40B543056015798C
:103170004E00B5400668354305601579012D02D033
:103180001579022D16D185684F000326BE40B54340
:10319000856055794E00B540866835438560456841
:1031A00001268E40B5434560456896798E40B6B29B
:1031B00035434560C5684F000326BE40B543C56032
:1031C000D5794E00B540C6683543C560491C102905
:1031D000BFD3F0BD4FF6FF71016000210171417155
:1031E0008171C171704708B54FF480320092009A26
:1031F0000A430092009AC261C161009AC261C26929
:103200000092C269009208BD0246002013690B407B
:103210000BB1012000E0002070470146086980B230
:1032200070470246002053690B400BB1012000E0BB
:10323000002070470146486980B27047018370479B
:10324000418370470AB1018300E0418370474161C7
:10325000704742694A4042617047F0B5002300243C
:103260004D07ED0E02FA05F3CE1000F1200555F8DA
:1032700026504E07F70E0F26BE40B543CF1000F183
:10328000200646F82750CE1000F1200555F82650AC
:1032900045EA0304CE1000F1200545F82640F0BDB4
:1032A000000002400004024000080240000C0240FE
:1032B000001002400014024000180240001C0240AE
:1032C000002002400024024000280240F948006823
:1032D00040F00100F74908600020F6490831086015
:1032E000F4480068F4490840F2490860F348091DB1
:1032F0000860F348EF4984310860F0481038091D30
:103300000860EC48006820F48020EA49086000204A
:10331000E8490C310860E7498C31086070470021AA
:10332000E44A921C117011460870704710B50146AE
:103330000022002300204A11012A02D1DD4C23681B
:1033400008E0022A03D1DB4C7034236802E0D94C38
:103350007434236801F01F02012494401C400CB116
:10336000012000E0002010BD38B5002000900024AE
:10337000002500BF3120FFF7D9FF05460098401C0B
:1033800000900098B0F5A04F01D0002DF2D0312070
:10339000FFF7CCFF08B1012400E00024204638BD2F
:1033A00001460020C34A106820F0F80040EAC1003E
:1033B00010607047C349086070470021BD4A7032F1
:1033C00011701170012802D004280AD104E00121F3
:1033D000B84A7032117005E00521B64A703211709A
:1033E00000E000BF00BF7047B7490860704770B584
:1033F000049C41EA82150126C6EB530645EA0645C0
:10340000054345EA0465AB4E361D356070BDAD49D8
:1034100008667047820142EA0172A64B84331A6043
:103420007047A8498866704710B5830143EA016375
:1034300043EA02739F4C8834236010BDA14908679A
:103440007047A049C864704702460020994B083372
:10345000186820F0EC6042EA01031843954B0833EA
:103460001860704702460020924B0833186820F01D
:10347000784042EA010318438E4B083318607047C6
:10348000014600208B4A0832106820F003000843F0
:103490001060704787480830006800F00C007047E3
:1034A00001460020834A0832106820F0F0000843EB
:1034B00010607047014600207E4A0832106820F4F0
:1034C000E05008431060704701460020794A0832F6
:1034D000106820F4604040EAC10010607047F0B509
:1034E000002100220024022500260223714F083704
:1034F0003F6807F00C0121B1042905D0082937D114
:1035000005E0724F076036E0714F076033E0694FA6
:103510003F1D3F68C7F38056664F3F1D3F6807F069
:103520003F036EB16A4FB7FBF3F7DFF888C10CF1C8
:10353000040CDCF800C0CCF3881C07FB0CF40CE096
:10354000624FB7FBF3F7DFF86CC10CF1040CDCF849
:1035500000C0CCF3881C07FB0CF4564F3F1D3F689E
:10356000C7F301477F1C7D00B4FBF5F7076002E05D
:10357000564F076000BF00BF4E4F08373F6807F047
:10358000F0010909534F7A5C0768D7404760494FFB
:1035900008373F6807F4E051890A4E4F7A5C476864
:1035A000D7408760434F08373F6807F46041490BB5
:1035B000484F7A5C4768D740C760F0BD002100F4EF
:1035C0004072B2F5407F0AD13A4A0832116821F4BC
:1035D000F811414A02401143364A08321160354A17
:1035E00070321268C0F30B031A43324B70331A6007
:1035F000704735494439086070473349403908609D
:10360000704736490860704701460020294A8C32CD
:10361000106820F01F004A1E1043264A8C321060AA
:10362000704701460020234A8C32106820F4F8507D
:103630004A1E40EA02201F4A8C3210607047014641
:1036400000201C4A8C32106820F44010084310609F
:10365000704701460020174A8C32106820F4400061
:1036600008431060704701460020124A8C321068EF
:1036700020F44030084310607047194908607047D3
:1036800039B10C4A3032126802430A4B30331A60A7
:1036900006E0084A303212688243064B30331A6023
:1036A0007047F9B1034A343212680243014B343394
:1036B0001A601CE000380240FFFFF6EA10300024D8
:1036C0000030002000004742800E47420024F400F2
:1036D00000127A0062010020FFFCFF0F5C014742EC
:1036E000E01147428F4A126882438E4B1A6070473E
:1036F00039B18C4A121D126802438A4B1B1D1A6095
:1037000006E0884A121D12688243864B1B1D1A6010
:10371000704739B1834A0C3212680243814B0C3333
:103720001A6006E07F4A0C32126882437D4B0C33EC
:103730001A60704739B17B4A103212680243794BE4
:1037400010331A6006E0774A103212688243754BD4
:1037500010331A60704739B1724A243A1268024332
:10376000704B243B1A6006E06E4A243A126882438A
:103770006C4B243B1A60704739B16A4A203A126890
:103780000243684B203B1A6006E0664A203A126802
:103790008243644B203B1A60704739B1614A1C3A3E
:1037A000126802435F4B1C3B1A6006E05D4A1C3AFC
:1037B000126882435B4B1C3B1A60704739B1594A0F
:1037C000143A12680243574B143B1A6006E0554AFC
:1037D000143A12688243534B143B1A60704739B154
:1037E000504A103A126802434E4B103B1A6006E0F2
:1037F0004C4A103A126882434A4B103B1A60704799
:1038000039B1484A1C3212680243464B1C331A60D5
:1038100006E0444A1C3212688243424B1C331A6051
:10382000704739B13F4A2032126802433D4B203382
:103830001A6006E03B4A203212688243394B20333B
:103840001A60704739B1374A243212680243354B47
:1038500024331A6006E0334A243212688243314B23
:1038600024331A60704739B12E4A2C321268024351
:103870002C4B2C331A6006E02A4A2C321268824301
:10388000284B2C331A60704739B1264A30321268FF
:103890000243244B30331A6006E0224A3032126869
:1038A0008243204B30331A607047012808D11D49EC
:1038B0003C31096841F008011A4A3C32116007E0C6
:1038C00018493C31096821F00801164A3C32116060
:1038D000704739B1134A273A12780243114B273BFC
:1038E0001A7006E00F4A273A127882430D4B273BA5
:1038F0001A7070470B484030006840F080700949EA
:1039000040310860704701460020064A283A126894
:103910000A400AB1012000E0002070470149263921
:10392000087070473438024010B50446FA488442A3
:1039300008D101211020FFF752FF00211020FFF7CE
:103940004EFF57E0F548844209D101214804FFF7B2
:1039500035FF00214FF40030FFF730FF4AE0F04818
:10396000844209D101218804FFF728FF00214FF488
:103970008020FFF723FF3DE0EA48844209D101217E
:10398000C804FFF71BFF00214FF40020FFF716FFCC
:1039900030E0E548844209D101210805FFF70EFF18
:1039A00000214FF48010FFF709FF23E0DF48844235
:1039B00008D101212020FFF712FF00212020FFF76E
:1039C0000EFF17E0DA48844209D101218807FFF78A
:1039D000F5FE00214FF08040FFF7F0FE0AE0D548E9
:1039E000844207D101214005FFF7E8FE0021600570
:1039F000FFF7E4FE10BD2DE9FF4705460E46002403
:103A0000A14600BFA046B08900B100BF2C8A24F4B3
:103A10004054F08804432C82AC8941F20C6084430A
:103A2000B08831890843718908430443AC81AC8A6A
:103A300024F44074B0890443AC826846FFF74FFD1C
:103A4000B548854202D0B948854202D1DDF80C90D4
:103A500001E0DDF80890A88900F4004040B109EBCE
:103A6000C90000EB091031684900B0FBF1F707E02D
:103A700009EBC90000EB091031688900B0FBF1F7D0
:103A80006420B7FBF0F004012009642101FB1078E9
:103A9000A88900F4004040B1322000EBC800B0FB20
:103AA000F1F000F00700044308E0322000EB0810BA
:103AB0006421B0FBF1F000F00F0004432C81BDE85D
:103AC000FF874FF41651016000218180C180018180
:103AD0000C21418100218181704710B502460020F0
:103AE000108A20F470600B884C8823438C88234311
:103AF000CC8823431843108210BD002101804180EF
:103B00008180C180704721B1828942F40052828154
:103B100004E082894DF6FF731A4082817047028B60
:103B200002F47F420283028B0A430283704721B171
:103B3000828942F40042828103E08289C2F30E024C
:103B40008281704721B1828A42F40062828204E05D
:103B5000828A4FF2FF731A4082827047C1F30802D3
:103B60008280704701468888C0F308007047028A47
:103B70004FF6F0731A400282028A0A4302827047AB
:103B800021B1828942F00202828104E082894FF6EB
:103B9000FD731A408281704782894FF2FF731A4089
:103BA000828182890A4382817047028A4FF6DF73DD
:103BB0001A400282028A0A430282704721B1028AB5
:103BC00042F48042028204E0028A4BF6FF731A40FC
:103BD00002827047818941F001018181704721B1E2
:103BE000828A42F00802828204E0828A4FF6F773EA
:103BF0001A4082827047028BD2B20283028B42EA61
:103C000001220283704721B1828A42F0200282821F
:103C100004E0828A4FF6DF731A408282704721B136
:103C2000828A42F01002828204E0828A4FF6EF73A9
:103C30001A4082827047828A4FF6FB731A40828252
:103C4000828A0A438282704721B1828A42F002024C
:103C5000828204E0828A4FF6FD731A4082827047A6
:103C60001AB1838A0B43838202E0838A8B43838267
:103C70007047F0B50346002400260025002040F6DA
:103C80006A17B94200D100BF1846C1F3421401F0CF
:103C90001F06012707FA06F5012C01D10C3004E0BC
:103CA000022C01D1103000E014301AB107682F4304
:103CB000076002E00768AF430760F0BD02460020DE
:103CC000B1F5007F00D100BF13880B400BB101207C
:103CD00000E00020704701F40072B2F5007F00D1CF
:103CE00000BFCA430280704770B50246002400231B
:103CF0000025002040F66A16B14200D100BFC1F392
:103D0000421501F01F03012606FA03F3012D13D11A
:103D10009689334017E00000001001400044004045
:103D200000480040004C004000500040001401409A
:103D300000780040007C0040022D02D1168A3340FA
:103D400001E0968A33400C12012606FA04F4168824
:103D5000344013B10CB1012000E0002070BD10B55B
:103D60000022002340F66A14A14200D100BF0A12CB
:103D700001249440A3B2DC43048010BD10B501219E
:103D80000802FFF72CFD00214FF48070FFF727FD9C
:103D900010BD30B50246002000235068F84C20408A
:103DA0000D790C6844EA0524204350609068F54C76
:103DB0002040D1E903542C438D682C434D7944EACB
:103DC000450420439060D06A20F470000C7D641E8E
:103DD000E4B2234340EA0350D06230BD00210160C9
:103DE000017141718160C1600161012101757047FC
:103DF0000021E54A1168E54A1140D0E900231A4341
:103E000083681A43C3681A431143E14AC2F8041392
:103E100070470021016041608160C160704721B13D
:103E2000826842F00102826003E0826822F00102AF
:103E3000826070470A4600214168D64B1940114301
:103E4000416070474162826270470A4600214168C2
:103E500021F01F0111434160704738B1CA49096818
:103E600041F40001CA4AC2F8041306E0C6490968D1
:103E700021F40001C64AC2F80413704738B1C249A0
:103E8000096841F48001C24AC2F8041306E0BE4941
:103E9000096821F48001BE4AC2F804137047F0B5E6
:103EA00004460D4600200021092D11DDE068A5F132
:103EB0000A0606EB4607072606FA07F18843A5F12E
:103EC0000A0606EB460603FA06F10843E0600CE03A
:103ED000206905EB4507072606FA07F1884305EB3D
:103EE000450603FA06F108432061072A0FDA606BE2
:103EF000561E06EB86071F2606FA07F18843561E54
:103F000006EB860605FA06F10843606322E00D2AF7
:103F10000FDA206BD61F06EB86071F2606FA07F17D
:103F20008843D61F06EB860605FA06F10843206390
:103F300010E0E06AA2F10D0606EB86071F2606FADE
:103F400007F18843A2F10D0606EB860605FA06F195
:103F50000843E062F0BD816841F0804181607047B4
:103F6000014600208A6802F080420AB1012000E088
:103F70000020704721B1826842F48062826003E0D1
:103F8000826822F480628260704721B1826842F0C8
:103F90000202826003E0826822F0020282607047BF
:103FA00010B50A4600210023416821F46041531EE8
:103FB00041EA4331416010BD21B1426842F40062E0
:103FC000426003E0426822F40062426070470146AA
:103FD000C86C80B270476C48001D0068704721B102
:103FE000826842F48072826003E0826822F4807208
:103FF0008260704721B1826842F40072826003E0FF
:10400000826822F400728260704738B15E490968A4
:1040100041F400515E4AC2F8041306E05A490968A7
:1040200021F400515A4AC2F804137047F0B504460F
:104030001546002000220026092911DDE068A1F1C3
:104040000A0707EB470C072707FA0CF29043A1F188
:104050000A0707EB470703FA07F21043E0600CE09A
:10406000206901EB410C072707FA0CF2904301EBA2
:10407000410703FA07F210432061A06BC0F3015619
:10408000EF1C06F1010CA7EB0C0707EB870C1F27B1
:1040900007FA0CF29043EF1C06F1010CA7EB0C079A
:1040A00007EB870701FA07F21043A063F0BD10B5D4
:1040B0000A4600210023816B21F44011531E41EA7E
:1040C0000351816310BD08B5002300930090009B4D
:1040D0000B440093009B1A6008BD0A4600218168CA
:1040E00021F470211143816070470A4600218168E4
:1040F00021F44011114381607047816841F48001CF
:1041000081607047014600208A6802F480020AB18B
:10411000012000E00020704721B1426842F4806233
:10412000426003E0426822F480624260704721B13D
:10413000426842F48052426003E0426822F48052B6
:104140004260704708B5024600200090009201F1DD
:104150002800009B184400900098006880B208BDB9
:1041600010B50B460021D9B2012404FA01F11AB1AD
:1041700044680C43446002E044688C43446010BDD2
:10418000FFFEFFFCFDF7FFC004230140E030FCFF11
:1041900000200140FFFD3FFF0246002013680B4056
:1041A0000BB1012000E000207047CA430260704755
:1041B00070B502460020002300240B12556801262A
:1041C0008E4005EA060415681D4015B10CB10120AA
:1041D00000E0002070BD00220A12D3430360704744
:1041E000016821F0010101600021016041608160EE
:1041F000C160016121214161DB49884204D13D2137
:10420000D94A103A91608CE0D7491831884205D1DB
:104210004FF47461D44A103A916082E0D24930314F
:10422000884205D14FF47411CF4A103A916078E07A
:10423000CD494831884205D14FF07461CA4A103ADD
:1042400091606EE0C8496031884204D1C749C64ACE
:10425000103AD16065E0C4497831884204D1C4493C
:10426000C14A103AD1605CE0BF499031884204D124
:10427000C049BD4A103AD16053E0BB49A8318842D9
:1042800005D14FF03D51B84A103AD16049E0BA49E2
:10429000884204D13D21B84A083A116041E0B6494C
:1042A0001831884205D14FF47461B34A083A11605D
:1042B00037E0B1493031884205D14FF47411AE4A2C
:1042C000083A11602DE0AC494831884205D14FF0E1
:1042D0007461A94A083A116023E0A7496031884215
:1042E00004D1A249A44A121F11601AE0A2497831F0
:1042F000884204D19E49A04A121F116011E09E49D4
:104300009031884204D19B499B4A121F116008E0FA
:104310009949A831884204D14FF03D51964A121F65
:104320001160704710B500220268944B1A40CC68A7
:104330000B6823434C6923438C692343CC69234393
:104340000C6A23434C6A23438C6A23434C6B2343FC
:104350008C6B23431A430260426922F00702D1E9C1
:104360000B3423431A4342610B6943604B688360FB
:104370008B68C36010BD0021016041608160C16035
:10438000016141618161C161016241628162C16219
:10439000016341638163704721B1026842F0010209
:1043A000026003E0026822F001020260704721B15E
:1043B000026842F40042026003E0026822F4004214
:1043C0000260704721B1026842F02002026003E0FF
:1043D000026822F020020260704741607047014687
:1043E000486880B2704722B1036843F40023036039
:1043F00003E0036823F4002303600161704721B1E7
:10440000026842F48022026003E0026822F4802203
:10441000026070470AB1016100E0C1607047014667
:1044200000200A6802F400220AB1012000E0002006
:104430007047014600200A6802F001020AB101201B
:1044400000E000207047014600204A6902F0380071
:10445000704730B503460A4600200024464DAB4263
:1044600002D24149103901E04349103902F00055A8
:104470000DB14C6800E00C68414D2C4004EA020587
:104480000DB1012000E0002030BD02463A4B9A42B7
:1044900002D23548103801E03748103801F0005397
:1044A0001BB1374B0B40C36002E0354B0B408360C0
:1044B000704710B501F080034BB122B1436943F05E
:1044C0008003436103E0436923F080034361802953
:1044D0000BD02AB1036801F01E042343036004E0FB
:1044E000036801F01E04A343036010BD70B50246CB
:1044F000002000240025204EB24202D21A4B103B6D
:1045000001E01D4B103B1F4E0E4036B11E2606EA41
:10451000D124166806EA040502E0566906F0800513
:1045200001F000560EB15C6800E01C68144E344087
:1045300004EA010616B10DB1012000E0002070BDB3
:1045400002460D4B9A4202D20748103801E00A4851
:10455000103801F000531BB1094B0B40C36002E05F
:10456000074B0B4083607047106002403D00002005
:10457000400F002000003D20106402403F801CF0EE
:104580007D0F7D0F3C0F3C0F10B50446FE48844262
:1045900008D101210846FFF722F900210120FFF789
:1045A0001EF99DE0B4F1804F08D101210846FFF7C4
:1045B00005F900210120FFF701F991E0F348844259
:1045C00008D101210220FFF7F9F800210220FFF7AE
:1045D000F5F885E0EE48844208D101210420FFF778
:1045E000EDF800210420FFF7E9F879E0E94884427A
:1045F00008D101210820FFF7E1F800210820FFF78A
:10460000DDF86DE0E448844208D101211020FFF775
:10461000D5F800211020FFF7D1F861E0DF4884428F
:1046200008D101212020FFF7C9F800212020FFF741
:10463000C5F855E0DA48844208D101210220FFF78D
:10464000CEF800210220FFF7CAF849E0D54884429D
:1046500009D101210804FFF7C2F800214FF480308E
:10466000FFF7BDF83CE0D048844209D1012148045D
:10467000FFF7B5F800214FF40030FFF7B0F82FE056
:10468000CA48844209D101218804FFF7A8F8002113
:104690004FF48020FFF7A3F822E0C548844208D1F8
:1046A00001214020FFF78AF800214020FFF786F81B
:1046B00016E0C048844208D101218020FFF77EF82F
:1046C00000218020FFF77AF80AE0BB48844207D136
:1046D00001218015FFF772F80021A015FFF76EF891
:1046E00010BD00220288A84B98420ED0AC4B9842D5
:1046F0000BD0B0F1804F08D0A44B984205D0A44B0A
:10470000984202D0A34B984204D14FF68F731A40BF
:104710004B881A43A04B984207D0A04B984204D034
:104720004FF6FF431A400B891A4302804B68C3625D
:104730000B880385944B984202D0994B984201D143
:104740008B7A03860123838270474FF0FF314160EB
:104750000021018001814180817270470185828240
:1047600070470A46002101884FF68F7319401143A4
:104770000180704741627047C16270470146486AD4
:1047800070470146088D704721B1028842F002024D
:10479000028004E002884FF6FD731A4002807047E1
:1047A00021B1028842F00402028004E002884FF640
:1047B000FB731A400280704721B1028842F08002E8
:1047C000028004E002884FF67F731A40028070472F
:1047D00002884FF6F7731A40028002880A4302806B
:1047E000704702884FF6FF431A40028002880A434E
:1047F0000280704721B1028842F00102028004E089
:1048000002884FF6FE731A400280704770B500248C
:1048100000220023058C4FF6FE7635400584028C7D
:104820008388048B4FF68F752C40B51E2C400D8865
:104830002C43751E2A408D892A434D882A43524DA8
:10484000A84202D0564DA84213D14FF6F7752A4020
:10485000CD892A434FF6FB752A408D882A434FF6AF
:10486000FF652B404FF6FF552B400D8A2B434D8A99
:104870002B43838004838D684563028470BD70B5CB
:10488000002400220023058C4FF6EF763540058486
:10489000028C8388048B48F6FF752C404FF6FF4549
:1048A0002C400D884FF6FF7606EA05252C434FF67F
:1048B000DF752A408D8906EA05152A434D8806EAE8
:1048C00005152A43304DA84202D0354DA8421DD1CE
:1048D0004FF67F752A40CD894FF6FF7606EA05151B
:1048E0002A434FF6BF752A408D8806EA05152A43EC
:1048F0004FF6FF352B404FF2FF752B400D8A06EA2D
:1049000085052B434D8A06EA85052B438380048366
:104910008D688563028470BD70B500240022002379
:10492000058C4FF6FF6635400584028C8388848BA6
:104930004FF68F752C404FF6FC752C400D882C439C
:104940004FF6FF552A408D894FF6FF7606EA05257A
:104950002A434D8806EA05252A430B4DA84202D07A
:104960000F4DA84238D14FF2FF752A40CD894FF63E
:10497000FF7606EA05252A434FF6FF352A408D8843
:1049800006EA05252A4319E0000001400004004022
:1049900000080040000C00400010004000140040DF
:1049A0000004014000400140004401400048014033
:1049B00000180040001C0040002000404EF6FF752B
:1049C0002B404DF6FF752B400D8A06EA05152B434B
:1049D0004D8A06EA05152B43838084838D68C56361
:1049E000028470BD70B5002200230024058C4EF6B1
:1049F000FF7635400584038C8488828B48F6FF75EA
:104A00002A404FF6FF452A400D884FF6FF7606EA0A
:104A100005252A434DF6FF752B408D8906EA05359D
:104A20002B434D8806EA05352B43FE4DA84202D0A4
:104A3000FD4DA84208D14BF6FF752C400D8A4FF66C
:104A4000FF7606EA85152C43848082838D68056491
:104A5000038470BD0021018041808180816081815B
:104A6000C18101824182704770B503460020002455
:104A70001846183001258D40ACB21D8CA5431D840D
:104A800009B108290AD100EB610005684FF68F765D
:104A9000354005600568154305600FE00D1FC5F33F
:104AA0004E052844056848F6FF76354005600568E0
:104AB0004FF6FF7606EA02263543056070BD416376
:104AC000704781637047C1637047016470470A464D
:104AD0000021018B4FF68F731940114301837047FA
:104AE0000A460021018B48F6FF7319404FF6FF7309
:104AF00003EA02231943018370470A460021818B90
:104B00004FF68F7319401143818370470A46002185
:104B1000818B48F6FF7319404FF6FF7303EA0223B7
:104B20001943818370470A460021018B4FF6F773C2
:104B300019401143018370470A460021018B4FF24F
:104B4000FF7319404FF6FF7303EA022319430183F1
:104B500070470A460021818B4FF6F77319401143C5
:104B6000818370470A460021818B4FF2FF73194001
:104B70004FF6FF7303EA02231943818370470A4605
:104B80000021018B4FF6FB731940114301837047DD
:104B90000A460021018B4FF6FF3319404FF6FF7391
:104BA00003EA02231943018370470A460021818BDF
:104BB0004FF6FB7319401143818370470A46002169
:104BC000818B4FF6FF3319404FF6FF7303EA022340
:104BD0001943818370470A460021018B4FF67F738A
:104BE00019401143018370470A460021018BC1F32C
:104BF0000E014FF6FF7303EA022319430183704746
:104C00000A460021818B4FF67F731940114381833F
:104C100070470A460021818BC1F30E014FF6FF73E6
:104C200003EA02231943818370470A460021018C5D
:104C30004FF6FD7319401143018470470A46002165
:104C4000018C4FF6F77319401143018470470A46EF
:104C50000021018C4FF6DF7319404FF6FF7303EA12
:104C600002131943018470470A460021018C4FF654
:104C70007F7319404FF6FF7303EA0213194301844F
:104C800070470A460021018C4FF6FF5319404FF63A
:104C9000FF7303EA02231943018470470A46002187
:104CA000018C4FF2FF7319404FF6FF7303EA0223A2
:104CB0001943018470470A460021018C4DF6FF73A9
:104CC00019404FF6FF7303EA02331943018470471A
:104CD00030B5002301248C40A3B2048C9C4304848F
:104CE000048C02FA01F5ADB22C43048430BD30B51A
:104CF000002304248C40A3B2048C9C430484048CC1
:104D000002FA01F5ADB22C43048430BD828B4FF220
:104D1000FF331A408283828B4FF6FF7303EA01232D
:104D20001A4382837047F0B50C46154600210022D5
:104D30000026078C4EF6FF7C07EA0C070784818B60
:104D4000028C4FF6FF7707EA043640F6FF473940FA
:104D50004FF6FF7707EA052739434FF6FF7707EA53
:104D60000337394345F6FF773A4046F480573A43D4
:104D700081830284F0BD828B4FF6F3731A408283E5
:104D8000828B0A4382837047F0B50C46154600219A
:104D900000220026078C4FF6FF6C07EA0C070784F9
:104DA000818B028C4FF6FF7707EA04264FF60C77CB
:104DB00039404FF6FF7707EA03172F4339434FF285
:104DC000FF573A4046F480773A4381830284F0BD2E
:104DD000028B4FF2FF331A400283028B4FF6FF73B0
:104DE00003EA01231A4302837047F0B50C461546C7
:104DF000002100220026078C4FF6EF7C07EA0C0703
:104E00000784018B028C4FF6FF7707EA041640F601
:104E1000FF4739404FF6FF7707EA033739434FF62C
:104E2000FF7703E0000001400004014007EA052786
:104E300039434FF65F773A4046F010073A43018313
:104E40000284F0BD028B4FF6F3731A400283028B8B
:104E50000A4302837047F0B50C4615460021002234
:104E6000068C4FF6FE773E400684018B028C4FF68F
:104E70000C7631407E1C06EA03162E4331434FF672
:104E8000F576324044F00106324301830284F0BDDE
:104E900070B505460C46208850B92389A2886188E0
:104EA0002846FFF7D8FFE1882846FFF7CBFF25E02B
:104EB000208804280AD12389A28861882846FFF720
:104EC00094FFE1882846FFF783FF17E02088082831
:104ED0000AD12389A28861882846FFF755FFE18817
:104EE0002846FFF748FF09E02389A2886188284601
:104EF000FFF719FFE1882846FFF708FF70BD002182
:104F000001804180012181800021C18001817047A1
:104F10002DE9F04105460C4600260127608808B9B6
:104F2000022600E00026A088012801D1022700E027
:104F300001272088A0B92389A28861882846FFF725
:104F40008AFFE1882846FFF77DFF23893A463146EC
:104F50002846FFF74AFFE1882846FFF739FF13E0AC
:104F60002389A28861882846FFF73FFFE188284609
:104F7000FFF72EFF23893A4631462846FFF76BFF9D
:104F8000E1882846FFF75EFFBDE8F0810146486BE7
:104F900070470146886B70470146C86B70470146F1
:104FA000086C70470A884B881A438B881A43CB8851
:104FB0001A430B891A434B891A438B891A43A0F869
:104FC000442070470021018041808180C18001819F
:104FD00041818181704731B1B0F8442042F40042F0
:104FE000A0F8442005E0B0F84420C2F30E02A0F877
:104FF0004420704721B1828842F00402828004E09C
:1050000082884FF6FB731A408280704721B18288F4
:1050100042F00102828004E082884FF6FE731A405B
:10502000828070471AB183890B43838102E08389B0
:105030008B43838170478182704702460020138A28
:105040000B400BB1012000E000207047CA430282F0
:10505000704730B50246002000230024158A05EA77
:105060000103958905EA010413B10CB1012000E0A8
:10507000002030BDCA430282704741EA0203A0F813
:10508000483070471AB183890B43838102E08389DA
:105090008B438381704721B1828842F0080282806D
:1050A00004E082884FF6F7731A40828070470189C6
:1050B0004FF6F8721140018170470A4600210189BC
:1050C0004FF68F73194011430181704730B5044684
:1050D0000D4629462046FFF7F0FF208940F00700E3
:1050E000208130BD2DE9F04104460D4616461F468D
:1050F000602D06D13B46012231462046FFF775FE62
:1051000005E03B46012231462046FFF7A4FE294632
:105110002046FFF7D2FF208940F007002081BDE83C
:10512000F08130B50C4600210189C9B24FF6FF75F8
:1051300005EA0325154325432943018130BD2DE9A7
:10514000F04105460E4617469846002443463A4627
:1051500031462846FFF7E5FF2C894FF6F8700440EA
:1051600044F007044FF68F70044044F070042C8123
:10517000BDE8F081F0B504460D4616461F463B4695
:10518000324629462046FFF7CCFF208940F4804074
:105190002081F0BD82884FF68F731A40828082880A
:1051A0000A438280704702894FF6F8731A400281E1
:1051B00002890A430281704702894FF67F731A40C1
:1051C000028102890A4302817047F0B50C461546F8
:1051D0001E460021002200230189028B038C4FF61A
:1051E000F877394021434FF6FC473A4040F2011727
:1051F0003A434FF6DD773B404FF6FF7707EA061755
:105200002F433B43018102830384F0BD21B1828897
:1052100042F08002828004E082884FF67F731A4059
:1052200082807047A0F85010704700007CB50025C0
:1052300014E06946284601F013FE064666B9F748B1
:1052400050F8254044B1012C06D0D4E9020100EB0E
:10525000810060640198A064681CC5B23F2DE8D944
:105260007CBD002400BF02E0282001F003FFEC48D1
:1052700000780028F8D0EB4800686421B0FBF1F01A
:10528000E84908600846006828B90020E649087027
:10529000FF2001F027FE00BF02F0A6F80446E34815
:1052A0000068E34908600020E0490860204602F0F9
:1052B0009FF8DF480068DB490968B0FBF1F0C0F1F6
:1052C0006400D949087001F0B2FFFFF7AFFF142066
:1052D00001F0D0FEE0E700B587B003200021802276
:1052E000D44BCDE90132CDE903104FF6FE703E23D9
:1052F000D14A0090AFF2950001F0CBFB06AACFA1F6
:105300003E2001F02FFD07B000BD002400BF00BF0C
:1053100002F06AF80446C5480068401CC3490860AA
:10532000204602F065F801F081FFF1E700B587B093
:10533000032000218022C54BCDE90132CDE90310C5
:105340004FF6FF703F23C24A0090AFF2410001F0D8
:10535000A0FB06AABFA13F2001F004FD07B000BDDD
:1053600004E0002200F8012B4A1E91B20029F8D176
:10537000704770B5C821BB48FFF7F2FF00230FE06C
:10538000581C85B203EB8300B64901EB800405EBA2
:10539000850001EB8006002020706660581C83B2F7
:1053A000092BEDD303EB8300AE4901EB8004002011
:1053B000207060600846AC49086070BD70B54FF45D
:1053C0007C71AA48FFF7CCFF4FF480719348FFF738
:1053D000C7FF002413E0601CC5B2C4EBC40000EB9F
:1053E0004000A24901EB8003C5EBC50000EB400083
:1053F00001EB80065E619EA0D864601CC4B20B2CD9
:10540000E9D3C4EBC40000EB4000984901EB8003F2
:105410000020586196A0D8640020964908609348FF
:105420009549086070BD0021944A1170002004E085
:105430000021934A1154411CC8B20828F8D3002116
:10544000904A1170904A1170904A1160904A116010
:10545000704700208F4908608F4908708F49087095
:105460008F4908708F4908708F4908606F4908603C
:105470006F4908606B49086069490870704710B54A
:1054800001F0D0FEFFF7E5FFFFF7CDFFFFF796FF36
:10549000FFF76FFF00F0EAFE01F0E1F9FFF746FFCA
:1054A000FFF719FF01F0BFFE10BD7E48007801280C
:1054B00008D179480078FF2804D277480078401C4A
:1054C00075490870704779496C4A1278885C6C4954
:1054D000095C764A515C01EBC0016B4A1170704760
:1054E00010B500246F480078012830D101F07CFF0E
:1054F00004466948007820B167480078401E664934
:10550000087065480078F8B964480078E0B9FFF79A
:10551000DAFF42485C49097850F821005B4908608D
:10552000594800785749097888420DD05748006893
:10553000806B401C5549096888635B480068401CC3
:105540005949086001F070FF204601F051FF10BD7D
:1055500010B5002453480078012811D101F044FF10
:1055600004464D48007840B94C480078FF2804D2E2
:105570004A480078401C49490870204601F038FF2D
:1055800010BD10B5002401F02FFF044642480078FA
:10559000F8B942480078E0B9FFF795FF1F483A494B
:1055A000097850F8210039490860374800783549B2
:1055B000097888420DD035480068806B401C33491B
:1055C0000968886338480068401C3749086001F062
:1055D00024FF204601F00CFF10BD10B50024314817
:1055E000007801286FD101F0FFFE04462B480078B7
:1055F00080B12A480078401E284908700846007883
:1056000048B92548007838B9204601F0F1FEFFF787
:10561000B8FF58E054E04FE04AE00000B01D002021
:105620008C01002084010020800100209C010020CA
:1056300088010020B0190020AC1B002075432F4FBB
:10564000532D49492053746174000000B01B0020A1
:10565000AC1D002075432F4F532D49492049646CE0
:10566000650000009818002078010020B01E00207E
:105670003F000000AC010020A401002091010020A7
:10568000920100208F01002090010020A80100203D
:10569000A0010020B80100208D0100208E01002013
:1056A0009B0100209A010020740100201AA3000829
:1056B000204601F09DFE06E0204601F099FE02E042
:1056C000204601F095FE10BD10B5EB48007890B96A
:1056D000FFF7F9FEE9480078E9490870E948E74929
:1056E000097850F82100E849086008460068E74951
:1056F000086001F080FE10BD10B50024022001F00A
:10570000B9FC01F071FE04460020E1490860204622
:1057100001F06EFE142001F0ADFC01F065FE0446C0
:10572000DB480068DB4908600120DB49087020463F
:1057300001F05EFE10BD70B5002601F050FE01F0D4
:1057400053FE0646D5480068401CD44908603046E0
:1057500001F04EFEC8480078012853D1D0480078A7
:1057600020B1012804D0022809D103E001250BE073
:10577000002509E001250120C949087004E0012540
:105780000020C749087000BF00BF05B970BDC548FB
:10579000046833E001F028FE0646E06A50B3E06A90
:1057A000401EE062E06A28BB94F8300000F0370049
:1057B00040B114F8300F00F0C80020700120607074
:1057C000303C02E0002084F8310094F8300000F012
:1057D000080078B93434A078B34909780843B2494D
:1057E00008702078B149085C6178084314F83419CE
:1057F000AE4A50546469304601F0FAFD94F8320024
:105800003F28C7D100BFC1E740F22310704770475F
:1058100010B590F8342001F10B039B5C90F83540F3
:10582000A34301F10B04A35423469B5C23B98B7A59
:1058300090F83640A3438B7210BD2DE9F04F05461A
:105840000F4690469946A87A99490E5C05F10B00DF
:10585000805D11F800B00BEBC60000F0FF0A89482C
:1058600050F82A4000202034E0602760207C20EAA5
:105870000800207484F81190207C203C00F008007F
:1058800068B994F836008849097808438649087051
:105890008648805D94F83510084384498855294628
:1058A0002046FFF7B5FF5046BDE8F08F10B5774AA8
:1058B0001268D061754A126892F8343000F10B0218
:1058C000D25C724B1B6893F835301A436F4B1B68E0
:1058D00093F8344000F10B031A55827A6B4B1B6826
:1058E00093F836301A438272684A126892F834107C
:1058F0006E4A525C654B1B6893F835309A436B4B8C
:105900005A541A46525C42B9604A126892F83630CC
:10591000654A12789A43644B1A7010BD0146002202
:105920008A72002005E0002301F10B021354421C8F
:10593000D0B20828F7D3704705E011F8013B00F812
:10594000013B531E9AB2002AF7D17047014600204E
:1059500002E0491C421CD0B20A78002AF9D17047F3
:105960002DE9F84F05460F4690469946DDE90AAB0A
:105970000020009001F038FD00904E480468002C93
:1059800075D0183454F8040C4A490860009801F0A6
:105990002FFD44F8187CA5760020207660766061A3
:1059A00044F814BC44F80CAC44F8108C0C9824F85F
:1059B000080C24F8069C0020E077E810207705F01A
:1059C0000700E076217F01208840A077E17E01205A
:1059D0008840607700206060E060A0602062A06284
:1059E0006062E0622063AFF278306063183C0026AA
:1059F00006E0002104F1500040F82610701CC6B2E9
:105A0000002EF6D0204601F0E9FC204601F00CFC07
:105A100001F0EAFC00901B4840F82540214800684E
:105A200060610020A0611F48006810B11D48006837
:105A300084611C4804603434A0781B490978084309
:105A40001949087020781949085C6178084314F8EE
:105A50003419164A505418480078401C16490870EA
:105A6000009801F0C5FC0020BDE8F88FFFE7009822
:105A700001F0BEFC4220F7E79A01002090010020CF
:105A80008F010020B01D0020A8010020A0010020EF
:105A90009C010020840100208C010020B80100201E
:105AA000B0010020AC0100209101002092010020F3
:105AB0001AA30008A40100209B0100202DE9F05F3B
:105AC00004460F4691461E464FF0000B20780528ED
:105AD00004D0012030700020BDE8F09F09F0800A5A
